0062801580999991950010412004+05250-074733FM-12+018399999V0209991C000019999999N0160001N9+02221+02111100851ADDAY121999GF108991021051004501071999IA1009KA1999N+02001MW1051
0062801580999991950010612004+05250-074733FM-12+018399999V0201801N00101220001CN0200001N9+02221+02001101091ADDAY121999GF107991001001999999041081IA1009KA1999N+01891MW1041
0062801580999991950011312004+05250-074733FM-12+018399999V0209991C000019999999N0200001N9+02281+02221101191ADDAY121999GF108991011021008001071999IA1009KA1999N+02111MW1021
0062801580999991950011412004+05250-074733FM-12+018399999V0200401N002619999999N0200001N9+02281+02221101021ADDAY121999GF108991031061001501051999IA1009KA1999N+02221MW1021
0062801580999991950011812004+05250-074733FM-12+018399999V0209991C000019999999N0400001N9+02281+02221100691ADDAY121999GF102991021001999999061001IA1009KA1999N+02221MW1011
0049801580999991950012012004+05250-074733FM-12+018399999V0209991C00001012301CN0400001N9+02391+02281100961ADDAY121999GF108991081051012501999999IA1009MW1021
0062801580999991950012112004+05250-074733FM-12+018399999V0203601N001019999999N0200001N9+02391+02221100991ADDAY121999GF107991031041012501041001IA1009KA1999N+02001MW1041
0062801580999991950012312004+05250-074733FM-12+018399999V0203601N001019999999N0160001N9+02281+02221100891ADDAY121999GF107991011061001501031001IA1009KA1999N+02001MW1041
0062801580999991950012412004+05250-074733FM-12+018399999V0203601N002119999999N0400001N9+02221+02221100961ADDAY121999GF104991041011017501001001IA1009KA1999N+02221MW1011
0062801580999991950012512004+05250-074733FM-12+018399999V0200401N001519999999N0160001N9+02391+02221101231ADDAY121999GF107991011021008001071001IA1009KA1999N+02001MW1041
0062801580999991950012612004+05250-074733FM-12+018399999V0209991C00001220001CN0160001N9+02111+02111101091ADDAY141999GF106991001001999999001031IA1009KA1999N+02001MW1041
0062801580999991950012812004+05250-074733FM-12+018399999V0209991C00001015001CN0100001N9+02221+02221101021ADDAY141999GF108991081051017501999999IA1089KA1999N+02221MW1401
0081801580999991950012912004+05250-074733FM-12+018399999V0200401N00051220001CN0200001N9+02221+02221101021ADDAY121999GF107991999001999999051001IA1009KA1999N+02111MW1041EQDQ01+000002SCOTLC
0062801580999991950013012004+05250-074733FM-12+018399999V0209991C00001007801CN0150001N9+02221+02221101021ADDAY121999GF108991081041008001999999IA1089KA1999N+02221MW1021
0062801580999991950020212004+05250-074733FM-12+018399999V0209991C00001220001CN0200001N9+02221+02221101061ADDAY121999GF108991001001999999051999IA1009KA1999N+02001MW1041
0062801580999991950020512004+05250-074733FM-12+018399999V0200201N00411007801CN0200001N9+02501+02221101131ADDAY121999GF108991071041008001999999IA1009KA1999N+02281MW1151
0062801580999991950020612004+05250-074733FM-12+018399999V0209991C000019999999N0200001N9+02221+99999101261ADDAY161999GF102991021061001501021999IA1089KA1999N+02001MW1021
0048801580999991950020712004+05250-074733FM-12+018399999V0209991C00001220001CN9999999N9+02221+02221101131ADDGF108991001001999999071999IA1009KA1999N+02221
0062801580999991950021112004+05250-074733FM-12+018399999V0209991C00001012301CN0400001N9+02281+02281100851ADDAY151999GF108991071051012501001071IA1089KA1999N+02221MW1021
0062801580999991950021312004+05250-074733FM-12+018399999V0209991C00001015001CN0200001N9+02391+02391100751ADDAY121999GF108991081041017501999999IA1009KA1999N+02391MW1041
0062801580999991950021412004+05250-074733FM-12+018399999V0202801N001019999999N0160001N9+02281+02281100821ADDAY121999GF108991021051012501051999IA1009KA1999N+02221MW1041
0062801580999991950021612004+05250-074733FM-12+018399999V0209991C000019999999N0100001N9+02221+02221100821ADDAY121999GF106991011061004501041081IA1009KA1999N+02001MW1101
0062801580999991950021712004+05250-074733FM-12+018399999V0200201N001019999999N0150001N9+02281+02221100851ADDAY121999GF108991041061008001021999IA1009KA1999N+02221MW1021
0075801580999991950021812004+05250-074733FM-12+018399999V0209991C00001012301CN0200001N9+02281+02221100991ADDAY121999GF108991999071012501071999IA1009KA1999N+02001EQDQ01+000082SCOTLC
0062801580999991950021912004+05250-074733FM-12+018399999V0209991C010319999999N0080001N9+02221+02221101061ADDAY101999GF107991011061004501051001IA1009KA1999N+02221MW1811
0062801580999991950022012004+05250-074733FM-12+018399999V0209991C000019999999N0200001N9+02501+02281100991ADDAY121999GF108991031051008001071999IA1009KA1999N+02281MW1051
0062801580999991950022312004+05250-074733FM-12+018399999V0201801N001019999999N0150001N9+02281+02281100791ADDAY121999GF103991011011012501041001IA1009KA1999N+02111MW1401
0081801580999991950022412004+05250-074733FM-12+018399999V0209991C00001220001CN0150001N9+02391+02281100791ADDAY141999GF107991999001999999071001IA1009KA1999N+02111MW1401EQDQ01+000002SCOTLC
0062801580999991950030112004+05250-074733FM-12+018399999V0209991C00001220001CN0150001N9+02221+02221100991ADDAY121999GF106991001001999999031081IA1009KA1999N+02111MW1041
0062801580999991950030212004+05250-074733FM-12+018399999V0202001N002119999999N0160001N9+02221+02221101131ADDAY191999GF108991041051012501021999IA1089KA1999N+02001MW1111
0054801580999991950030312004+05250-074733FM-12+018399999V0209991C00001220001CN0200001N9+02281+02281100921ADDGF107991001001999999031061IA1009KA1999N+02221MW1021
0054801580999991950030512004+05250-074733FM-12+018399999V0203601N001019999999N0200001N9+02281+02221100891ADDGF107991021041017501061011IA1009KA1999N+02221MW1051
0054801580999991950030612004+05250-074733FM-12+018399999V0209991C00001220001CN0100001N9+02391+02281100891ADDGF108991001001999999071999IA1009KA1999N+02221MW1041
0054801580999991950030712004+05250-074733FM-12+018399999V0209991C00001220001CN0150001N9+02221+02221101021ADDGF108991001001999999071999IA1009KA1999N+02111MW1041
0054801580999991950030812004+05250-074733FM-12+018399999V0209991C000019999999N0150001N9+02391+02281100991ADDGF107991011051008001031001IA1009KA1999N+02221MW1051
0054801580999991950030912004+05250-074733FM-12+018399999V0209991C00001220001CN0200001N9+02391+02221101021ADDGF108991001001999999051011IA1009KA1999N+02281MW1041
0054801580999991950031012004+05250-074733FM-12+018399999V0200201N001019999999N0160001N9+02281+02221100891ADDGF105991011061004501031001IA1089KA1999N+02111MW1041
0073801580999991950031112004+05250-074733FM-12+018399999V0209991C00001220001CN0150001N9+02391+02221100891ADDGF105991999001999999031001IA1009KA1999N+02221MW1041EQDQ01+000002SCOTLC
0062801580999991950031212004+05250-074733FM-12+018399999V0209991C00001220001CN0120001N9+02391+02281101061ADDAY121999GF108991001001999999071999IA1159KA1999N+02221MW1041
0062801580999991950031312004+05250-074733FM-12+018399999V0209991C00001220001CN0200001N9+02281+02221100991ADDAY121999GF107991001001999999031061IA1009KA1999N+02221MW1041
0054801580999991950031412004+05250-074733FM-12+018399999V0209991C00001015001CN0100001N9+02391+02391100991ADDGF108991061051017501071999IA1309KA1999N+02221MW1101
0041801580999991950031612004+05250-074733FM-12+018399999V0203401N001019999999N0150001N9+02281+02221101061ADDGF103991011061004501001091IA1009MW1041
0054801580999991950031712004+05250-074733FM-12+018399999V0203601N00311015001CN0120001N9+02391+02221101231ADDGF108991081051017501999999IA1309KA1999N+02281MW1041
0067801580999991950031812004+05250-074733FM-12+018399999V0209991C00001220001CN0080001N9+02281+02221101091ADDGF104991999001999999031001KA1999N+02001MW1041EQDQ01+000002SCOTLC
0054801580999991950032012004+05250-074733FM-12+018399999V0203601N00051220001CN0120001N9+02221+02221101261ADDGF108991001001999999071999IA1319KA1999N+02001MW1111
0054801580999991950032112004+05250-074733FM-12+018399999V0201401N000519999999N0160001N9+02391+02221101191ADDGF106991021061004501031041IA1309KA1999N+02001MW1041
0062801580999991950032212004+05250-074733FM-12+018399999V0200401N002619999999N0080001N9+02391+02111101161ADDAY121999GF108991021031004501051001IA1009KA1999N+02221MW1041
0054801580999991950032312004+05250-074733FM-12+018399999V0200201N000519999999N0400001N9+02281+02111101131ADDGF108991011051008001071999IA1159KA1999N+02221MW1021
0062801580999991950032412004+05250-074733FM-12+018399999V0201801N001019999999N0160001N9+02391+02221101021ADDAY121999GF105991021051012501999999IA1159KA1999N+02221MW1041
0062801580999991950032512004+05250-074733FM-12+018399999V0202001N001019999999N0160001N9+02281+02111101091ADDAY151999GF108991031061012501021011IA1009KA1999N+02001MW1021
0054801580999991950032612004+05250-074733FM-12+018399999V0203401N00361007801CN0160001N9+02501+02221100821ADDGF108991061051008001071999IA1089KA1999N+02221MW1051
0062801580999991950032712004+05250-074733FM-12+018399999V0209991C000019999999N0120001N9+02281+02281100961ADDAY121999GF104991031061012501999999IA1009KA1999N+02001MW1101
0081801580999991950032812004+05250-074733FM-12+018399999V0209991C00001220001CN0002001N9+02221+02221100821ADDAY141999GF101991999001999999041001IA1309KA1999N+01891MW1441EQDQ01+000002SCOTLC
0062801580999991950032912004+05250-074733FM-12+018399999V0200201N001019999999N0120001N9+02391+02221100891ADDAY121999GF108991031061012501001081IA1319KA1999N+02001MW1041
0062801580999991950033012004+05250-074733FM-12+018399999V0209991C000019999999N0060001N9+02281+02281100921ADDAY121999GF104991041061012501001001IA1319KA1999N+02001MW1101
0062801580999991950033112004+05250-074733FM-12+018399999V0200201N00211220001CN0050001N9+02501+02221100991ADDAY121999GF108991001001999999071999IA1009KA1999N+02281MW1041
0062801580999991950040112004+05250-074733FM-12+018399999V0201801N001019999999N0050001N9+02391+02221100851ADDAY111999GF106991021061008001071999IA1319KA1999N+02001MW1041
0054801580999991950040212004+05250-074733FM-12+018399999V0200201N00211004501CN0140001N9+02391+02281100921ADDGF108991051051004501071999IA1309KA1999N+02111MW1041
0062801580999991950040312004+05250-074733FM-12+018399999V0203601N000519999999N0140001N9+02221+02221101161ADDAY121999GF107991021081012501081001IA1009KA1999N+02001MW1401
0054801580999991950040412004+05250-074733FM-12+018399999V0201401N00151220001CN0400001N9+02391+02221101061ADDGF108991001001999999051999IA1089KA1999N+02111MW1031
0054801580999991950040512004+05250-074733FM-12+018399999V0201801N001019999999N0140001N9+02281+02221101091ADDGF107991021081012501051999IA1189KA1999N+02001MW1401
0054801580999991950040612004+05250-074733FM-12+018399999V0209991C000019999999N0200001N9+02281+02221101231ADDGF108991021061004501071999IA1009KA1999N+02001MW1021
0073801580999991950040712004+05250-074733FM-12+018399999V0209991C00001024001CN0050001N9+02391+02281101131ADDGF108991999001999999021001IA1009KA1999N+02221MW1401EQDQ01+000072SCOTLC
0054801580999991950040812004+05250-074733FM-12+018399999V0200201N001519999999N0200001N9+02501+02221101191ADDGF106991011051017501071001IA1309KA1999N+01001MW1011
0054801580999991950040912004+05250-074733FM-12+018399999V0209991C00001220001CN0160001N9+02391+02281101091ADDGF107991001001999999011999IA1009KA1999N+02221MW1031
0062801580999991950041012004+05250-074733FM-12+018399999V0209991C000019999999N0200001N9+02501+02391100921ADDAY121999GF103991011021008001081001IA1009KA1999N+02221MW1051
0054801580999991950041112004+05250-074733FM-12+018399999V0209991C00001220001CN0100001N9+02391+02391100921ADDGF105991001001999999011999IA1009KA1999N+02221MW1401
0054801580999991950041212004+05250-074733FM-12+018399999V0201401N000519999999N0200001N9+02501+02221100891ADDGF105991011021008001051001IA1319KA1999N+02221MW1011
0073801580999991950041312004+05250-074733FM-12+018399999V0209991C00001220001CN0060001N9+02501+02391101021ADDGF105991999001999999071001IA1319KA1999N+02221MW1041EQDQ01+000002SCOTLC
0062801580999991950041412004+05250-074733FM-12+018399999V0209991C00001012301CN0060001N9+02611+02501101021ADDAY121999GF108991051041012501071999IA1309KA1999N+02111MW1041
0054801580999991950041612004+05250-074733FM-12+018399999V0200401N00461007801CN0040001N9+02501+02281100961ADDGF108991051061008001999999IA1009KA1999N+02221MW1161
0054801580999991950041712004+05250-074733FM-12+018399999V0209991C000019999999N0100001N9+02391+02281100891ADDGF105991021061012501041001IA1139KA1999N+02001MW1101
0054801580999991950041812004+05250-074733FM-12+018399999V0203501N001019999999N0150001N9+02501+02221100961ADDGF108991011051008001051999IA1009KA1999N+02221MW1041
0073801580999991950041912004+05250-074733FM-12+018399999V0209991C00001220001CN0070001N9+02391+02281100921ADDGF103991999001999999011001IA1009KA1999N+02001MW1121EQDQ01+000002SCOTLC
0054801580999991950042012004+05250-074733FM-12+018399999V0200201N001519999999N0120001N9+02281+02281100921ADDGF107991011021008001071999IA1309KA1999N+02001MW1401
0073801580999991950042112004+05250-074733FM-12+018399999V0209991C00001220001CN0100001N9+02281+02221100921ADDGF102991999001999999081001IA1009KA1999N+02001MW1101EQDQ01+000002SCOTLC
0081801580999991950042212004+05250-074733FM-12+018399999V0203601N00101220001CN0080001N9+02391+02281100901ADDAY121999GF104991999001999999051001IA1309KA1999N+02111MW1101EQDQ01+000002SCOTLC
0054801580999991950042512004+05250-074733FM-12+018399999V0201601N001519999999N0080001N9+02221+02111101091ADDGF108991031051008001021999IA1159KA1999N+02001MW1101
0054801580999991950042612004+05250-074733FM-12+018399999V0201801N003119999999N0200001N9+02391+02221101091ADDGF108991031051004501071999IA1009KA1999N+02001MW1021
0073801580999991950042712004+05250-074733FM-12+018399999V0201601N00211220001CN0160001N9+02391+02281101021ADDGF103991999001999999041001IA1139KA1999N+02111MW1011EQDQ01+000002SCOTLC
0062801580999991950050112004+05250-074733FM-12+018399999V0203601N00311004501CN0040001N9+02221+02111101161ADDAY191999GF108991081071004501999999IA1309KA1999N+01891MW1541
0054801580999991950050212004+05250-074733FM-12+018399999V0203601N001019999999N0070001N9+02281+02221101021ADDGF107991021021012501071999IA1159KA1999N+01611MW1411
0054801580999991950050312004+05250-074733FM-12+018399999V0200201N00101007801CN0120001N9+02391+02111101021ADDGF108991071061008001071999IA1309KA1999N+02221MW1111
0054801580999991950050412004+05250-074733FM-12+018399999V0209991C000019999999N0070001N9+02391+02281100891ADDGF108991011061004501071999IA1159KA1999N+01781MW1031
0054801580999991950050512004+05250-074733FM-12+018399999V0200201N00261004501CN0200001N9+02391+02281100991ADDGF108991051061004501071999IA1089KA1999N+02001MW1021
0054801580999991950050612004+05250-074733FM-12+018399999V0209991C000019999999N0400001N9+02391+02281100921ADDGF102991011021012501001021IA1009KA1999N+02111MW1011
0054801580999991950050912004+05250-074733FM-12+018399999V0209991C00001220001CN0700001N9+02281+02221100891ADDGF100991001001999999001001IA1009KA1999N+01891MW1021
0054801580999991950051012004+05250-074733FM-12+018399999V0203601N00311001501CN0050001N9+02221+02221100961ADDGF108991081021001501999999IA1309KA1999N+02001MW1511
0062801580999991950051112004+05250-074733FM-12+018399999V0209991C000019999999N0080001N9+02221+02221101131ADDAY191999GF108991041071001501999999IA1009KA1999N+01891MW1511
0041801580999991950051212004+05250-074733FM-12+018399999V0201801N00051015001CN0070001N9+02221+02111101301ADDGF108991081051017501999999IA1159MW1511
0041801580999991950051312004+05250-074733FM-12+018399999V0200201N00101015001CN0100001N9+02281+02221101191ADDGF108991061051017501071999IA1309MW1121
0054801580999991950051412004+05250-074733FM-12+018399999V0209991C00001015001CN0060001N9+02221+02221101261ADDGF108991081071017501999999IA1159KA1999N+01781MW1511
0035801580999991950051512004+05250-074733FM-12+018399999V0200201N000519999999N0200001N9+02391+02281101091ADDGF105991999999999999999999MW1011
0041801580999991950051612004+05250-074733FM-12+018399999V0201801N00101015001CN0050001N9+02221+02111101401ADDGF108991081071017501999999IA1159MW1511
0054801580999991950051712004+05250-074733FM-12+018399999V0209991C00001000151CN0030001N9+02281+02221101231ADDGF109991091999000251999999IA1009KA1999N+02001MW1101
0054801580999991950051812004+05250-074733FM-12+018399999V0209991C00001012301CN0140001N9+02501+02281101091ADDGF108991081071012501999999IA1309KA1999N+02001MW1511
0041801580999991950051912004+05250-074733FM-12+018399999V0200201N00151004501CN0060001N9+02221+02221101231ADDGF108991061051004501021999IA1089MW1121
0041801580999991950052012004+05250-074733FM-12+018399999V0209991C00001012301CN0100001N9+02281+02281101061ADDGF108991081051012501999999IA1319MW1021
0062801580999991950052112004+05250-074733FM-12+018399999V0201801N00051004501CN0060001N9+02001+02001101331ADDAY161999GF108991061071004501021999IA1189KA1999N+01781MW1511
0062801580999991950052212004+05250-074733FM-12+018399999V0209991C00001220001CN0400001N9+02221+02221101191ADDAY111999GF106991001001999999041999IA1319KA1999N+01781MW1111
0054801580999991950052312004+05250-074733FM-12+018399999V0209991C00001015001CN0400001N9+02281+02281101161ADDGF106991051021017501041999IA1159KA1999N+02001MW1041
0054801580999991950052412004+05250-074733FM-12+018399999V0209991C00001002401CN0140001N9+02281+02221101191ADDGF108991071071002501021999IA1189KA1999N+02111MW1161
0054801580999991950052512004+05250-074733FM-12+018399999V0209991C00001012301CN0110001N9+02391+02281101231ADDGF108991081071012501999999IA1309KA1999N+02221MW1021
0041801580999991950052612004+05250-074733FM-12+018399999V0209991C000019999999N0080001N9+02281+02281101301ADDGF108991041001017501021999IA1009MW1501
0041801580999991950052812004+05250-074733FM-12+018399999V0201801N001519999999N0400001N9+02281+02221101021ADDGF103991031061002501001001IA1139MW1011
0035801580999991950053012004+05250-074733FM-12+018399999V0209991C00001220001CN0400001N9+02391+02281101021ADDGF106991001001999999081081MW1011
0041801580999991950053112004+05250-074733FM-12+018399999V0209991C000019999999N0400001N9+02281+02221101131ADDGF108991021021012501071999IA1309MW1111
0041801580999991950060112004+05250-074733FM-12+018399999V0202001N000519999999N0400001N9+02281+02221101091ADDGF108991011031012501021999IA1009MW1021
0041801580999991950060212004+05250-074733FM-12+018399999V0209991C000019999999N0160001N9+02281+02221101091ADDGF108991041051008001021999IA1159MW1111
0041801580999991950060312004+05250-074733FM-12+018399999V0209991C00001004501CN0070001N9+02221+02221101301ADDGF108991051051004501071999IA1089MW1121
0041801580999991950060412004+05250-074733FM-12+018399999V0209991C00001007801CN0070001N9+02221+02221101131ADDGF108991081071008001999999IA1309MW1161
0049801580999991950060512004+05250-074733FM-12+018399999V0203601N00261004501CN0050001N9+02281+02221101231ADDAY151999GF108991071071004501021999IA1089MW1521
0041801580999991950060612004+05250-074733FM-12+018399999V0200201N00411007801CN0110001N9+02281+02111101301ADDGF108991061021008001021999IA1309MW1141
0041801580999991950060712004+05250-074733FM-12+018399999V0209991C00001007801CN0150001N9+02281+02281101401ADDGF108991051051008001071999IA1159MW1121
0049801580999991950060912004+05250-074733FM-12+018399999V0201801N001019999999N0200001N9+02281+02221101261ADDAY161999GF107991031051017501071999IA1189MW1011
0041801580999991950061012004+05250-074733FM-12+018399999V0209991C000019999999N0400001N9+02281+02221101091ADDGF108991041021017501021999IA1089MW1021
0041801580999991950061212004+05250-074733FM-12+018399999V0200401N002119999999N0080001N9+02221+02221101261ADDGF108991031051017501021999IA1309MW1121
0041801580999991950061312004+05250-074733FM-12+018399999V0209991C00001015001CN0200001N9+02391+02221101161ADDGF108991061051017501071999IA1159MW1031
0041801580999991950061412004+05250-074733FM-12+018399999V0209991C00001007801CN0120001N9+02391+02281101061ADDGF108991081051008001999999IA1309MW1021
0041801580999991950061512004+05250-074733FM-12+018399999V0209991C00001220001CN0160001N9+02281+02221101091ADDGF107991001001999999051999IA1309MW1121
0041801580999991950061612004+05250-074733FM-12+018399999V0209991C000019999999N0160001N9+02281+02221101091ADDGF104991031051017501021021IA1159MW1021
0041801580999991950061712004+05250-074733FM-12+018399999V0203601N000519999999N0160001N9+02221+02111101231ADDGF108991051051999999021999IA1319MW1151
0035801580999991950061812004+05250-074733FM-12+018399999V0209991C000019999999N0600001N9+02281+02221101021ADDGF102991011051017501041011MW1021
0041801580999991950061912004+05250-074733FM-12+018399999V0209991C000019999999N0400001N9+02391+02391100891ADDGF106991011011012501051011IA1309MW1021
0035801580999991950062012004+05250-074733FM-12+018399999V0209991C000019999999N0400001N9+02281+02221100921ADDGF102991011051012501031021MW1011
0049801580999991950062412004+05250-074733FM-12+018399999V0209991C00001012301CN0160001N9+02391+02281101131ADDAY101999GF108991051051012501071999IA1319MW1121
0041801580999991950062512004+05250-074733FM-12+018399999V0209991C00001007801CN0100001N9+02281+02221101261ADDGF108991051051008001071999IA1309MW1121
0041801580999991950062712004+05250-074733FM-12+018399999V0209991C00001015001CN0200001N9+02501+02391101131ADDGF107991051051017501071999IA1309MW1011
0041801580999991950062812004+05250-074733FM-12+018399999V0209991C00001004501CN0100001N9+02391+02281101131ADDGF108991081061004501999999IA1309MW1111
0041801580999991950062912004+05250-074733FM-12+018399999V0201801N000519999999N0200001N9+02221+02111101091ADDGF108991021061001501071999IA1159MW1021
0041801580999991950063012004+05250-074733FM-12+018399999V0203401N00151007801CN0120001N9+02391+02221101231ADDGF108991081051008001999999IA1309MW1021
0041801580999991950070112004+05250-074733FM-12+018399999V0209991C000019999999N0160001N9+02281+02221101361ADDGF108991031051012501071999IA1319MW1021
0041801580999991950070212004+05250-074733FM-12+018399999V0200401N001019999999N0140001N9+02501+02281101161ADDGF108991041051008001021999IA1309MW1021
0049801580999991950070312004+05250-074733FM-12+018399999V0209991C00001007801CN0200001N9+02391+02391101161ADDAY121999GF108991061051008001071999IA1309MW1021
0041801580999991950070412004+05250-074733FM-12+018399999V0209991C000019999999N0400001N9+02221+02111101301ADDGF106991021051012501071011IA1309MW1021
0041801580999991950070512004+05250-074733FM-12+018399999V0201801N00051012301CN0080001N9+02281+02221101501ADDGF106991061091012501001001IA1159MW1121
0041801580999991950070612004+05250-074733FM-12+018399999V0209991C000019999999N0400001N9+02281+02281101191ADDGF104991031051012501041001IA1159MW1031
0041801580999991950071012004+05250-074733FM-12+018399999V0209991C00001007801CN0160001N9+02391+02281101431ADDGF107991071051008001999999IA1309MW1031
0041801580999991950071112004+05250-074733FM-12+018399999V0209991C000019999999N0200001N9+02221+02111101531ADDGF107991011081008001041081IA1009MW1011
0041801580999991950071212004+05250-074733FM-12+018399999V0200201N001519999999N0400001N9+02281+02281101431ADDGF106991021051012501031081IA1309MW1031
0041801580999991950071412004+05250-074733FM-12+018399999V0209991C00001220001CN0600001N9+02221+02111101431ADDGF199999001001999999001081IA1309MW1031
0041801580999991950071612004+05250-074733FM-12+018399999V0209991C000019999999N0400001N9+02281+02111101501ADDGF103991011011012501031021IA1159MW1011
0041801580999991950071712004+05250-074733FM-12+018399999V0209991C00001012301CN0160001N9+02221+02221101431ADDGF105991051081012501001001IA1309MW1121
0041801580999991950071812004+05250-074733FM-12+018399999V0209991C00001012301CN0200001N9+02221+02111101361ADDGF108991071051012501021999IA1309MW1031
0041801580999991950071912004+05250-074733FM-12+018399999V0202001N00101007801CN0200001N9+02221+02111101501ADDGF108991051051008001071999IA1159MW1021
0049801580999991950072012004+05250-074733FM-12+018399999V0209991C00001012301CN0400001N9+02391+02281101431ADDAY121999GF106991051051012501071021IA1309MW1011
0041801580999991950072112004+05250-074733FM-12+018399999V0201801N000519999999N0400001N9+02391+02221101361ADDGF104991031081012501061001IA1199MW1021
0041801580999991950072212004+05250-074733FM-12+018399999V0200401N001019999999N0400001N9+02281+02111101231ADDGF107991041021012501071999IA1159MW1021
0041801580999991950072412004+05250-074733FM-12+018399999V0200201N00101220001CN0600001N9+02391+02111101461ADDGF101991001001999999001021IA1009MW1011
0041801580999991950072512004+05250-074733FM-12+018399999V0201801N00051220001CN0600001N9+02281+02001101331ADDGF102991001001999999051011IA1109MW1021
0049801580999991950080412004+05250-074733FM-12+018399999V0200401N00051007801CN0160001N9+02391+02221101531ADDAY101999GF108991061051008001071001IA1319MW1021
0041801580999991950080612004+05250-074733FM-12+018399999V0201601N001019999999N0160001N9+02501+02111101431ADDGF105991021021008001081001IA1309MW1041
0049801580999991950081512004+05250-074733FM-12+018399999V0209991C00001007801CN0150001N9+02281+02221101431ADDAY121999GF108991081051008001999999IA1009MW1021
0049801580999991950081712004+05250-074733FM-12+018399999V0209991C00001012301CN0200001N9+02281+02281101361ADDAY151999GF107991071051012501999999IA1009MW1011
0049801580999991950082112004+05250-074733FM-12+018399999V0209991C000019999999N0400001N9+02391+02221101361ADDAY111999GF103991021011012501001011IA1009MW1021
0041801580999991950082212004+05250-074733FM-12+018399999V0200401N00051012301CN0120001N9+02501+02391101161ADDGF108991081081012501999999IA1309MW1501
0049801580999991950082312004+05250-074733FM-12+018399999V0203401N00211004501CN0120001N9+02391+02221101431ADDAY121999GF108991081051004501999999IA1309MW1021
0049801580999991950082512004+05250-074733FM-12+018399999V0200201N002119999999N0200001N9+02221+02001101361ADDAY121999GF108991081051999999999999IA1309MW1021
0049801580999991950082612004+05250-074733FM-12+018399999V0203601N00051004501CN0150001N9+02391+02221101331ADDAY121999GF108991051051004501031081IA1309MW1031
0041801580999991950082712004+05250-074733FM-12+018399999V0209991C00001007801CN0140001N9+02221+02001101461ADDGF108991081051008001999999IA1009MW1211
0043801580999991950082912004+05250-074733FM-12+018399999V0209991C000019999999N0200001N9+02221+02111101701ADDAY121999GF103991031011017501001001MW1011
0049801580999991950090412004+05250-074733FM-12+018399999V0209991C000019999999N0400001N9+02111+02001101771ADDAY111999GF102991021011017501001001IA1009MW1011
0049801580999991950090612004+05250-074733FM-12+018399999V0200201N003119999999N0200001N9+02281+02001999999ADDAY111999GF104991031051008001041001IA1309MW1011
0049801580999991950090812004+05250-074733FM-12+018399999V0200201N00211007801CN0150001N9+02281+02111999999ADDAY121999GF108991081051008001999999IA1309MW1021
0041801580999991950091412004+05250-074733FM-12+018399999V0201801N00311220001CN0400001N9+02391+01781101131ADDGF101991001001999999001031IA1009MW1011
0041801580999991950091612004+05250-074733FM-12+018399999V0209991C00001220001CN0160001N9+02391+02221100821ADDGF108991001001999999071999IA1159MW1041
0049801580999991950092112004+05250-074733FM-12+018399999V0209991C00001007801CN0160001N9+02391+02111101231ADDAY121999GF108991081061008001999999IA1009MW1031
0035801580999991950092212004+05250-074733FM-12+018399999V0201601N001019999999N0160001N9+02391+02281101161ADDGF103991021051012501041001MW1041
0049801580999991950092512004+05250-074733FM-12+018399999V0209991C000019999999N0200001N9+02721+02391101021ADDAY121999GF108991031021012501021001IA1009MW1031
0049801580999991950092612004+05250-074733FM-12+018399999V0203601N00151004501CN0060001N9+02221+02221101161ADDAY191999GF108991061051004501021021IA1089MW1821
0049801580999991950092712004+05250-074733FM-12+018399999V0209991C00001007801CN0200001N9+02221+02111101161ADDAY121999GF108991081051008001999999IA1309MW1021
0041801580999991950092812004+05250-074733FM-12+018399999V0200201N00211007801CN0160001N9+02391+02221101231ADDGF108991071051008001071999IA1309MW1021
0049801580999991950092912004+05250-074733FM-12+018399999V0209991C00001007801CN0150001N9+02281+02221101361ADDAY151999GF108991081051008001999999IA1009MW1021
0041801580999991950093012004+05250-074733FM-12+018399999V0209991C00001007801CN0120001N9+02391+02281101301ADDGF108991051051008001071999IA1309MW1401
0041801580999991950100212004+05250-074733FM-12+018399999V0201401N000519999999N0400001N9+02281+02111101531ADDGF108991011061004501081071IA1319MW1021
0049801580999991950100312004+05250-074733FM-12+018399999V0209991C00001007801CN0200001N9+02281+02111101671ADDAY121999GF107991051051008001041999IA1009MW1011
0041801580999991950100412004+05250-074733FM-12+018399999V0209991C000019999999N0200001N9+02281+02221101461ADDGF108991021051017501011999IA1009MW1021
0041801580999991950100812004+05250-074733FM-12+018399999V0200201N001019999999N0200001N9+02391+02221101331ADDGF108991021011008001071999IA1309MW1021
0049801580999991950100912004+05250-074733FM-12+018399999V0200201N00101007801CN0150001N9+02221+02111101401ADDAY121999GF108991081051008001999999IA1009MW1021
0049801580999991950101012004+05250-074733FM-12+018399999V0200201N00261007801CN0050001N9+02221+02221101331ADDAY161999GF108991061071008001021999IA1009MW1531
0049801580999991950101112004+05250-074733FM-12+018399999V0209991C00001007801CN0150001N9+02111+02111101361ADDAY151999GF108991081061008001999999IA1009MW1021
0041801580999991950101212004+05250-074733FM-12+018399999V0203601N00051015001CN0200001N9+02391+02221101301ADDGF108991061051017501071999IA1309MW1021
0062801580999991950101312004+05250-074733FM-12+018399999V0209991C00001004501CN0150001N9+02221+02221101431ADDAY151999GF108991081051004501999999IA1009KA1999N+02001MW1501
0043801580999991950101512004+05250-074733FM-12+018399999V0209991C00001004501CN0150001N9+02111+02001101331ADDAY151999GF108991081051004501999999MW1031
0049801580999991950101712004+05250-074733FM-12+018399999V0203601N001019999999N0200001N9+02221+02001101461ADDAY111999GF106991021051012501041001IA1309MW1021
0049801580999991950101812004+05250-074733FM-12+018399999V0209991C00001004501CN0150001N9+02281+02221101361ADDAY151999GF108991081051004501999999IA1009MW1031
0043801580999991950101912004+05250-074733FM-12+018399999V0209991C00001004501CN0150001N9+02281+02221101261ADDAY121999GF108991081051004501999999MW1021
0043801580999991950102012004+05250-074733FM-12+018399999V0209991C00001007801CN0200001N9+02391+02281101301ADDAY121999GF107991051051008001041001MW1011
0049801580999991950102112004+05250-074733FM-12+018399999V0209991C000019999999N0120001N9+02501+02391101261ADDAY121999GF108991051061999999999999IA1309MW1021
0041801580999991950102212004+05250-074733FM-12+018399999V0201601N002119999999N0160001N9+02391+02281101231ADDGF107991021061004501031999IA1309MW1121
0043801580999991950102312004+05250-074733FM-12+018399999V0200201N00411007801CN0150001N9+02391+02221101301ADDAY121999GF108991081051008001999999MW1021
0041801580999991950102412004+05250-074733FM-12+018399999V0200401N00051007801CN0160001N9+02391+02281101321ADDGF108991061051008001071999IA1309MW1021
0049801580999991950102512004+05250-074733FM-12+018399999V0209991C000019999999N0200001N9+02391+02111101191ADDAY111999GF106991031051008001041001IA1009MW1021
0041801580999991950102612004+05250-074733FM-12+018399999V0203601N000519999999N0200001N9+02281+02221101131ADDGF107991031061004501081041IA1309MW1011
0049801580999991950102712004+05250-074733FM-12+018399999V0209991C00001007801CN0150001N9+02281+02221999999ADDAY121999GF108991081051008001999999IA1009MW1021
0043801580999991950102912004+05250-074733FM-12+018399999V0203401N00101004501CN0120001N9+02281+02221101331ADDAY151999GF108991081051004501999999MW1501
0049801580999991950103112004+05250-074733FM-12+018399999V0209991C00001007801CN0150001N9+02391+02281101161ADDAY121999GF108991081051008001999999IA1009MW1021
0049801580999991950110412004+05250-074733FM-12+018399999V0209991C00001007801CN0150001N9+02501+02391101161ADDAY121999GF108991061051008001041001IA1009MW1021
0049801580999991950110512004+05250-074733FM-12+018399999V0200201N00211007801CN0150001N9+02281+02111101331ADDAY121999GF107991051011008001041001IA1309MW1011
0049801580999991950110612004+05250-074733FM-12+018399999V0209991C00001007801CN0150001N9+02221+02111101301ADDAY111999GF108991081051008001999999IA1009MW1031
0041801580999991950110712004+05250-074733FM-12+018399999V0209991C00001007801CN0160001N9+02391+02221101301ADDGF108991081051008001999999IA1309MW1021
0049801580999991950110812004+05250-074733FM-12+018399999V0200201N00211004501CN0070001N9+02221+02221101231ADDAY151999GF108991081061004501999999IA1009MW1501
0049801580999991950110912004+05250-074733FM-12+018399999V0209991C00001004501CN0050001N9+02281+02221101161ADDAY161999GF108991061061004501071999IA1159MW1111
0049801580999991950111012004+05250-074733FM-12+018399999V0200201N001519999999N0200001N9+02391+02281101161ADDAY111999GF104991031011008001041001IA1309MW1011
0035801580999991950111112004+05250-074733FM-12+018399999V0209991C00001000151CN0006001N9+02281+02281101091ADDGF109991091999000251999999MW1451
0049801580999991950111212004+05250-074733FM-12+018399999V0200201N001019999999N0200001N9+99999+99999101161ADDAY111999GF104991031051008001041001IA1009MW1011
0049801580999991950111412004+05250-074733FM-12+018399999V0209991C000019999999N0400001N9+02111+02001101091ADDAY111999GF104991031011012501001011IA1009MW1011
0041801580999991950111512004+05250-074733FM-12+018399999V0200201N00051015001CN0150001N9+02111+02111101331ADDGF108991061051017501071999IA1309MW1121
0049801580999991950111612004+05250-074733FM-12+018399999V0209991C00001004501CN0120001N9+02221+02111101401ADDAY151999GF108991081071004501999999IA1009MW1511
0041801580999991950111712004+05250-074733FM-12+018399999V0200401N00051007801CN0150001N9+02281+02221101191ADDGF108991051051008001071999IA1309MW1111
0049801580999991950111812004+05250-074733FM-12+018399999V0200201N00101004501CN0080001N9+02221+02221101231ADDAY151999GF108991081051004501999999IA1009MW1501
0041801580999991950111912004+05250-074733FM-12+018399999V0209991C00001004501CN0100001N9+02281+02281101231ADDGF108991051051004501071999IA1309MW1121
0049801580999991950112112004+05250-074733FM-12+018399999V0209991C00001004501CN0120001N9+02281+02221101161ADDAY121999GF108991081051004501999999IA1309MW1021
0041801580999991950112212004+05250-074733FM-12+018399999V0200201N00311007801CN0160001N9+02391+02221101021ADDGF108991061051008001071999IA1309MW1021
0049801580999991950112612004+05250-074733FM-12+018399999V0209991C00001004501CN0120001N9+02281+02221100991ADDAY121999GF108991081051004501999999IA1009MW1501
0049801580999991950112712004+05250-074733FM-12+018399999V0203601N00101007801CN0200001N9+02281+02221101091ADDAY151999GF108991051051008001071999IA1309MW1021
0041801580999991950120112004+05250-074733FM-12+018399999V0209991C00001001501CN0070001N9+02281+02221101191ADDGF108991051061001501071999IA1319MW1101
0043801580999991950120212004+05250-074733FM-12+018399999V0201801N002119999999N0400001N9+02391+02221100991ADDAY111999GF104991021011004501001081MW1011
0049801580999991950120312004+05250-074733FM-12+018399999V0200201N00461004501CN0160001N9+02221+02001101131ADDAY121999GF108991081051004501999999IA1309MW1021
0049801580999991950120412004+05250-074733FM-12+018399999V0200201N00101001501CN0080001N9+02221+02111101161ADDAY151999GF108991081051001501999999IA1009MW1501
0043801580999991950120512004+05250-074733FM-12+018399999V0209991C000019999999N0200001N9+02391+02221101131ADDAY111999GF106991021051008001041001MW1031
0049801580999991950120612004+05250-074733FM-12+018399999V0209991C00001001501CN0150001N9+02391+02281101061ADDAY121999GF107991051051001501041001IA1309MW1011
0049801580999991950120712004+05250-074733FM-12+018399999V0209991C000019999999N0200001N9+02391+02221101021ADDAY121999GF107991041999999999031001IA1009MW1031
0049801580999991950121012004+05250-074733FM-12+018399999V0209991C00001001501CN0200001N9+02391+02391100961ADDAY111999GF108991051051001501041001IA1309MW1031
0049801580999991950121212004+05250-074733FM-12+018399999V0201801N001019999999N0150001N9+02221+02111101161ADDAY121999GF106991041051001501041001IA1159MW1021
0043801580999991950121312004+05250-074733FM-12+018399999V0209991C000019999999N0700001N9+02001+01721101091ADDAY111999GF107991021999008001001091MW1031
0049801580999991950121412004+05250-074733FM-12+018399999V0209991C00001004501CN0200001N9+02391+02281100991ADDAY121999GF107991071051004501999999IA1309MW1011
0029801580999991950121512004+05250-074733FM-12+018399999V0209991C000019999999N9999999N9+02391+02171100961ADDGF107991041051012501011001
0049801580999991950121612004+05250-074733FM-12+018399999V0209991C000019999999N0200001N9+02391+02281100891ADDAY111999GF107991031011001501011001IA1009MW1031
0049801580999991950121712004+05250-074733FM-12+018399999V0209991C000019999999N0150001N9+02391+02221100991ADDAY121999GF108991041061004501011001IA1009MW1031
0043801580999991950121912004+05250-074733FM-12+018399999V0209991C000019999999N0160001N9+02391+02391101091ADDAY111999GF103991021051008001001011MW1031
0049801580999991950122012004+05250-074733FM-12+018399999V0209991C000019999999N0150001N9+02221+02001101191ADDAY111999GF107991041051001501041001IA1309MW1021
0049801580999991950122212004+05250-074733FM-12+018399999V0209991C000019999999N0150001N9+02221+02221101021ADDAY141999GF104991031061001501001081IA1009MW1011
0049801580999991950122312004+05250-074733FM-12+018399999V0209991C000019999999N0200001N9+02281+02221100961ADDAY111999GF103991021011001501041001IA1009MW1011
0049801580999991950122412004+05250-074733FM-12+018399999V0209991C000019999999N0150001N9+02221+02111101061ADDAY151999GF107991031051001501021001IA1309MW1011
