0062801580999991950010412004+05250-074733FM-12+018399999V0209991C000019999999N0160001N9+02221+02111100851ADDAY121999GF108991021051004501071999IA1009KA1999N+02001MW1051
0062801580999991950010612004+05250-074733FM-12+018399999V0201801N00101220001CN0200001N9+02221+02001101091ADDAY121999GF107991001001999999041081IA1009KA1999N+01891MW1041
